{
  "address": "0xe7f1725E7734CE288F8367e1Bb143E90bb3F0512",
  "abi": [
    {
      "inputs": [
        {
          "internalType": "address",
          "name": "PriceFeedAddress",
          "type": "address"
        }
      ],
      "stateMutability": "nonpayable",
      "type": "constructor"
    },
    {
      "inputs": [],
      "name": "FundMe_notOwner",
      "type": "error"
    },
    {
      "stateMutability": "payable",
      "type": "fallback"
    },
    {
      "inputs": [],
      "name": "MINIMUM_USD",
      "outputs": [
        {
          "internalType": "uint256",
          "name": "",
          "type": "uint256"
        }
      ],
      "stateMutability": "view",
      "type": "function"
    },
    {
      "inputs": [],
      "name": "fundWallet",
      "outputs": [],
      "stateMutability": "payable",
      "type": "function"
    },
    {
      "inputs": [
        {
          "internalType": "uint256",
          "name": "",
          "type": "uint256"
        }
      ],
      "name": "fundersAddressArray",
      "outputs": [
        {
          "internalType": "address",
          "name": "",
          "type": "address"
        }
      ],
      "stateMutability": "view",
      "type": "function"
    },
    {
      "inputs": [
        {
          "internalType": "address",
          "name": "",
          "type": "address"
        }
      ],
      "name": "getAmtPerFunder",
      "outputs": [
        {
          "internalType": "uint256",
          "name": "",
          "type": "uint256"
        }
      ],
      "stateMutability": "view",
      "type": "function"
    },
    {
      "inputs": [],
      "name": "i_ownerAddress",
      "outputs": [
        {
          "internalType": "address",
          "name": "",
          "type": "address"
        }
      ],
      "stateMutability": "view",
      "type": "function"
    },
    {
      "inputs": [],
      "name": "priceFeed",
      "outputs": [
        {
          "internalType": "contract AggregatorV3Interface",
          "name": "",
          "type": "address"
        }
      ],
      "stateMutability": "view",
      "type": "function"
    },
    {
      "inputs": [],
      "name": "withdrawBalance",
      "outputs": [],
      "stateMutability": "nonpayable",
      "type": "function"
    },
    {
      "stateMutability": "payable",
      "type": "receive"
    }
  ],
  "transactionHash": "0x6290f19e4079ad73b3a55bc9dd670add4e23dc270f6ee9ad0a372a90a8b0c51b",
  "args": [
    "0x5FbDB2315678afecb367f032d93F642f64180aa3"
  ],
  "numDeployments": 1,
  "solcInputHash": "b4a79546d11aaa61c45274cff235d272",
  "bytecode": "0x60806040526802b5e3af16b188000060015534801561001d57600080fd5b50604051610f7f380380610f7f833981810160405281019061003f91906100db565b336000806101000a81548173ffffffffffffffffffffffffffffffffffffffff021916908373ffffffffffffffffffffffffffffffffffffffff16021790555080600460006101000a81548173ffffffffffffffffffffffffffffffffffffffff021916908373ffffffffffffffffffffffffffffffffffffffff16021790555050610156565b6000815190506100d58161013f565b92915050565b6000602082840312156100f1576100f061013a565b5b60006100ff848285016100c6565b91505092915050565b60006101138261011a565b9050919050565b600073ffffffffffffffffffffffffffffffffffffffff82169050919050565b600080fd5b61014881610108565b811461015357600080fd5b50565b610e1a806101656000396000f3fe6080604052600436106100745760003560e01c80636b69a5921161004e5780636b69a592146100d9578063741bef1a146101045780638c629bda1461012f578063aa6342031461016c57610083565b80634555aab81461008d5780635fd8c710146100b8578063664a1ad6146100cf57610083565b36610083576100816101a9565b005b61008b6101a9565b005b34801561009957600080fd5b506100a26102cb565b6040516100af9190610922565b60405180910390f35b3480156100c457600080fd5b506100cd6102ef565b005b6100d76101a9565b005b3480156100e557600080fd5b506100ee610530565b6040516100fb9190610998565b60405180910390f35b34801561011057600080fd5b50610119610536565b604051610126919061093d565b60405180910390f35b34801561013b57600080fd5b50610156600480360381019061015191906107a2565b61055c565b6040516101639190610998565b60405180910390f35b34801561017857600080fd5b50610193600480360381019061018e91906107cf565b610574565b6040516101a09190610922565b60405180910390f35b6001546101e1600460009054906101000a900473ffffffffffffffffffffffffffffffffffffffff16346105b390919063ffffffff16565b1015610222576040517f08c379a000000000000000000000000000000000000000000000000000000000815260040161021990610978565b60405180910390fd5b6002339080600181540180825580915050600190039060005260206000200160009091909190916101000a81548173ffffffffffffffffffffffffffffffffffffffff021916908373ffffffffffffffffffffffffffffffffffffffff16021790555034600360003373ffffffffffffffffffffffffffffffffffffffff1673ffffffffffffffffffffffffffffffffffffffff16815260200190815260200160002081905550565b60008054906101000a900473ffffffffffffffffffffffffffffffffffffffff1681565b60008054906101000a900473ffffffffffffffffffffffffffffffffffffffff1673ffffffffffffffffffffffffffffffffffffffff163373ffffffffffffffffffffffffffffffffffffffff1614610374576040517fd72551ca00000000000000000000000000000000000000000000000000000000815260040160405180910390fd5b60003373ffffffffffffffffffffffffffffffffffffffff164760405161039a9061090d565b60006040518083038185875af1925050503d80600081146103d7576040519150601f19603f3d011682016040523d82523d6000602084013e6103dc565b606091505b5050905080610420576040517f08c379a000000000000000000000000000000000000000000000000000000000815260040161041790610958565b60405180910390fd5b60005b6002805490508110156104cc5760006002828154811061044657610445610caa565b5b9060005260206000200160009054906101000a900473ffffffffffffffffffffffffffffffffffffffff1690506000600360008373ffffffffffffffffffffffffffffffffffffffff1673ffffffffffffffffffffffffffffffffffffffff168152602001908152602001600020819055505080806104c490610c03565b915050610423565b50600067ffffffffffffffff8111156104e8576104e7610cd9565b5b6040519080825280602002602001820160405280156105165781602001602082028036833780820191505090505b506002908051906020019061052c929190610692565b5050565b60015481565b600460009054906101000a900473ffffffffffffffffffffffffffffffffffffffff1681565b60036020528060005260406000206000915090505481565b6002818154811061058457600080fd5b906000526020600020016000915054906101000a900473ffffffffffffffffffffffffffffffffffffffff1681565b6000806105bf836105ef565b90506000670de0b6b3a764000085836105d89190610b17565b6105e291906109cf565b9050809250505092915050565b6000808273ffffffffffffffffffffffffffffffffffffffff1663feaf968c6040518163ffffffff1660e01b815260040160a06040518083038186803b15801561063857600080fd5b505afa15801561064c573d6000803e3d6000fd5b505050506040513d601f19601f8201168201806040525081019061067091906107fc565b505050915050670de0b6b3a76400008161068a9190610a00565b915050919050565b82805482825590600052602060002090810192821561070b579160200282015b8281111561070a5782518260006101000a81548173ffffffffffffffffffffffffffffffffffffffff021916908373ffffffffffffffffffffffffffffffffffffffff160217905550916020019190600101906106b2565b5b509050610718919061071c565b5090565b5b8082111561073557600081600090555060010161071d565b5090565b60008135905061074881610d88565b92915050565b60008151905061075d81610d9f565b92915050565b60008135905061077281610db6565b92915050565b60008151905061078781610db6565b92915050565b60008151905061079c81610dcd565b92915050565b6000602082840312156107b8576107b7610d08565b5b60006107c684828501610739565b91505092915050565b6000602082840312156107e5576107e4610d08565b5b60006107f384828501610763565b91505092915050565b600080600080600060a0868803121561081857610817610d08565b5b60006108268882890161078d565b95505060206108378882890161074e565b945050604061084888828901610778565b935050606061085988828901610778565b925050608061086a8882890161078d565b9150509295509295909350565b61088081610b71565b82525050565b61088f81610bcd565b82525050565b60006108a2602e836109be565b91506108ad82610d0d565b604082019050919050565b60006108c56015836109be565b91506108d082610d5c565b602082019050919050565b60006108e86000836109b3565b91506108f382610d85565b600082019050919050565b61090781610bad565b82525050565b6000610918826108db565b9150819050919050565b60006020820190506109376000830184610877565b92915050565b60006020820190506109526000830184610886565b92915050565b6000602082019050818103600083015261097181610895565b9050919050565b60006020820190508181036000830152610991816108b8565b9050919050565b60006020820190506109ad60008301846108fe565b92915050565b600081905092915050565b600082825260208201905092915050565b60006109da82610bad565b91506109e583610bad565b9250826109f5576109f4610c7b565b5b828204905092915050565b6000610a0b82610b83565b9150610a1683610b83565b9250827f7fffffffffffffffffffffffffffffffffffffffffffffffffffffffffffffff0482116000841360008413161615610a5557610a54610c4c565b5b817f80000000000000000000000000000000000000000000000000000000000000000583126000841260008413161615610a9257610a91610c4c565b5b827f80000000000000000000000000000000000000000000000000000000000000000582126000841360008412161615610acf57610ace610c4c565b5b827f7fffffffffffffffffffffffffffffffffffffffffffffffffffffffffffffff0582126000841260008412161615610b0c57610b0b610c4c565b5b828202905092915050565b6000610b2282610bad565b9150610b2d83610bad565b9250817fffffffffffffffffffffffffffffffffffffffffffffffffffffffffffffffff0483118215151615610b6657610b65610c4c565b5b828202905092915050565b6000610b7c82610b8d565b9050919050565b6000819050919050565b600073ffffffffffffffffffffffffffffffffffffffff82169050919050565b6000819050919050565b600069ffffffffffffffffffff82169050919050565b6000610bd882610bdf565b9050919050565b6000610bea82610bf1565b9050919050565b6000610bfc82610b8d565b9050919050565b6000610c0e82610bad565b91507fffffffffffffffffffffffffffffffffffffffffffffffffffffffffffffffff821415610c4157610c40610c4c565b5b600182019050919050565b7f4e487b7100000000000000000000000000000000000000000000000000000000600052601160045260246000fd5b7f4e487b7100000000000000000000000000000000000000000000000000000000600052601260045260246000fd5b7f4e487b7100000000000000000000000000000000000000000000000000000000600052603260045260246000fd5b7f4e487b7100000000000000000000000000000000000000000000000000000000600052604160045260246000fd5b600080fd5b7f46756e6473204e6f74205472616e73666572726564206f7220796f752061726560008201527f206e6f7420746865206f776e6572000000000000000000000000000000000000602082015250565b7f53656e6420243530206574682c2061746c656173740000000000000000000000600082015250565b50565b610d9181610b71565b8114610d9c57600080fd5b50565b610da881610b83565b8114610db357600080fd5b50565b610dbf81610bad565b8114610dca57600080fd5b50565b610dd681610bb7565b8114610de157600080fd5b5056fea2646970667358221220cc67895a0c418501a9d8322d652f2d1f2c270f672bf288fcf8cb04b67306b67a64736f6c63430008070033",
  "devdoc": {
    "kind": "dev",
    "methods": {},
    "version": 1
  },
  "userdoc": {
    "kind": "user",
    "methods": {},
    "version": 1
  },
  "storageLayout": {
    "storage": [
      {
        "astId": 53,
        "contract": "contracts/FundMe.sol:FundMe",
        "label": "i_ownerAddress",
        "offset": 0,
        "slot": "0",
        "type": "t_address"
      },
      {
        "astId": 58,
        "contract": "contracts/FundMe.sol:FundMe",
        "label": "MINIMUM_USD",
        "offset": 0,
        "slot": "1",
        "type": "t_uint256"
      },
      {
        "astId": 61,
        "contract": "contracts/FundMe.sol:FundMe",
        "label": "fundersAddressArray",
        "offset": 0,
        "slot": "2",
        "type": "t_array(t_address)dyn_storage"
      },
      {
        "astId": 68,
        "contract": "contracts/FundMe.sol:FundMe",
        "label": "getAmtPerFunder",
        "offset": 0,
        "slot": "3",
        "type": "t_mapping(t_address,t_uint256)"
      },
      {
        "astId": 71,
        "contract": "contracts/FundMe.sol:FundMe",
        "label": "priceFeed",
        "offset": 0,
        "slot": "4",
        "type": "t_contract(AggregatorV3Interface)45"
      }
    ],
    "types": {
      "t_address": {
        "encoding": "inplace",
        "label": "address",
        "numberOfBytes": "20"
      },
      "t_array(t_address)dyn_storage": {
        "base": "t_address",
        "encoding": "dynamic_array",
        "label": "address[]",
        "numberOfBytes": "32"
      },
      "t_contract(AggregatorV3Interface)45": {
        "encoding": "inplace",
        "label": "contract AggregatorV3Interface",
        "numberOfBytes": "20"
      },
      "t_mapping(t_address,t_uint256)": {
        "encoding": "mapping",
        "key": "t_address",
        "label": "mapping(address => uint256)",
        "numberOfBytes": "32",
        "value": "t_uint256"
      },
      "t_uint256": {
        "encoding": "inplace",
        "label": "uint256",
        "numberOfBytes": "32"
      }
    }
  }
}